:0400000081311D2904
:100008007E14803120007F08F4008B1A0B1D932882
:10001800F701F601F501F8010830780203184728BE
:100028007B08FB0A303E860087012330873D0108A4
:100038007902031CF5177B08FB0A303E860087010E
:100048002330873D01087902031CF6177B08FB0A59
:10005800303E860087012330873D01087902031C62
:10006800F7170730780203183F280310F50C031020
:10007800F60C0310F70C0130F0007008F807083090
:100088007802031C142827008C130C138C120C12F2
:100098008C110C118C100D10750921008C0076093B
:1000A8008F0077099000702827000D147A28270000
:1000B8008C147A2827000C157A2827008C157A28A2
:1000C80027000C167A2827008C167A2827000C1788
:1000D8007A2827008C177A287A08840008300402C6
:1000E80003187A2888310435003E82000130F00078
:1000F8007008FA0709307A020318FA01C1307B0246
:10010800031C8F28FB010130F0007008F90710303C
:1001180079020318F9017530200095000B112100B0
:10012800111CD9282000111CD9281708C001C007A4
:100138001608BF01BF073F09F0004009F100F00AA7
:100148000319F10A7008003EF2008030713DF30097
:1001580072089600730897000130F0007008C6070F
:100168003C304602031CD828C6010130F000700854
:10017800C2000130F0007008C4073C304402031C80
:10018800D828C4010130F0007008C30743080C3AAE
:10019800031DD0280130FC060D304302031CD8286B
:1001A8000130F0007008C30011102100911CE428F0
:1001B8002000911CE4280130BD070030BE3D91109D
:1001C8008B190B1C18292700161AF5280429033047
:1001D800F00070082000F3280330F0007008C20017
:1001E800042920004208003A0319EB28023A0319AF
:1001F8000429013A03190429073A0319F0280429A4
:100208002700961D102920004208043A031D1029D2
:100218000230F0007008C2002700961C1529200043
:100228000D08270096010B1074082000FF007E10AF
:10023800090081311F293030840023308500C03007
:10024800FE000030FF008C317C248131FC01F90173
:10025800FA01FB013D308400003085000C30FE00BF
:100268000030FF008C317C2481318731FD278131BA
:10027800C9008731FE27CA007E1020008C31882CE7
:100288002400940182309500141321008E118E12DF
:100298000E1624001516951621000E110030813116
:1002A800A72181312000A50029082506F83925064F
:1002B800A9000000200029080739023A031D080098
:1002C80014308131A72181312000A5002508A9001B
:1002D8002908E7391038A9002908F8390138A90090
:1002E8002908A5002508A100143087317927813114
:1002F80001308131A72181312000A500A601250800
:10030800A7002608A800000011308131A7218131FB
:100318002000A500A6012508A7002608A8000000BF
:100328002000A10111308731792781310000113077
:100338008131A7212000A500A6012508A7002608CD
:10034800A800000008002000A00022000E112000D4
:10035800911120088038240091002000911DB129B6
:100368000000000000000000000000000000000085
:100378000000000000000000000000000000000075
:100388000000000000000000000000000000000065
:100398000000000000000000000000000000000055
:1003A8000000000000000000000000000000000045
:1003B8000000000000000000000000000000000035
:1003C8000000000000000000000000000000000025
:1003D8000000000000000000000000000000000015
:1003E80020009111240091012000911DF82922007C
:1003F8000E152400110808000034003400340034BD
:100408000034003400340034003400340034003444
:100418000034003400340034003400340034003434
:100428000034003400340034003400340034003424
:100438000034003400340034003400340034003414
:100448000034003400340034003400340034003404
:100458000034003400340034003400340E341134D5
:10046800223411340E344034403440344034403463
:1004780060346034603460346034703470347034A4
:1004880070347034783478347834783478347C3410
:100498007C347C347C347C347E347E347E347E34CC
:1004A8007E347F347F347F347F347F347F3400342C
:1004B8000034003400347F347F3400340034003496
:1004C8007F347F347F34003400347F347F347F348A
:1004D8007F34003400343E3422343E340034003457
:1004E800003408340034003448347E34493441340C
:1004F8004234153416347C341634153414343E34EE
:100508005534553455340034073405340734003431
:100518007F340734083408340734483448347E3488
:1005280048344834043402347F34023404341034F8
:1005380020347F3420341034003400340034003444
:100548000034003400344F340034003400340734AD
:1005580000340734003414347F3414347F341434B2
:1005680024342A347F342A3412342334133408349C
:1005780064346234363449345534223450340034C7
:10058800053403340034003400341C34223441343C
:1005980000340034413422341C3400341434083418
:1005A8003E3408341434083408343E3408340834EB
:1005B80000345034303400340034083408340834FB
:1005C8000834083400346034603400340034203493
:1005D80010340834043402343E3451344934453438
:1005E8003E34003442347F34403400344234613481
:1005F8005134493446342134413445344B34313450
:100608001834143412347F341034273445344534C4
:10061800453439343C344A3449344934303401346B
:10062800713409340534033436344934493449348F
:10063800363406344934493429341E3400343634C7
:100648003634003400340034563436340034003440
:100658000834143422344134003414341434143437
:100668001434143400344134223414340834023439
:10067800013451340934063432344934793441343C
:100688003E347E340934093409347E347F344934A5
:100698004934493436343E344134413441342234C7
:1006A8007F344134413422341C347F344934493452
:1006B800493441347F3409340934093401343E342F
:1006C8004134493449347A347F340834083408349E
:1006D8007F34003441347F34413400342034403492
:1006E80041343F3401347F340834143422344134E3
:1006F8007F3440344034403440347F3402340C3446
:1007080002347F347F340434083410347F343E3468
:100718004134413441343E347F3409340934093496
:1007280006343E344134513421345E347F34093444
:100738001934293446344634493449344934313437
:10074800013401347F34013401343F3440344034BF
:1007580040343F341F342034403420341F343F3475
:100768004034383440343F34633414340834143457
:10077800633407340834703408340734613451342E
:1007880049344534433400347F34413441340034EF
:1007980002340434083410342034003441344134F1
:1007A8007F340034043402340134023404344034D5
:1007B800403440344034403400340134023404348A
:1007C8000034203454345434543478347F34483426
:1007D8004834483430343834443444344434443469
:1007E80030344834483448347F34383454345434FA
:1007F80054345834003408347E34093402344834CC
:100808005434543454343C347F3408340834083471
:100818007034003400347A340034003420344034E6
:1008280040343D34003400347F34103428344434A8
:10083800003441347F34403400347C340434383458
:1008480004347C347C340834043404347834383444
:1008580044344434443438347C3414341434143434
:10086800083408341434143414347C347C34083494
:100878000434043408344834543454345434243458
:10088800043404343F34443424343C344034403455
:1008980040343C341C342034403420341C343C3440
:1008A8004034303440343C34443428341034283410
:1008B800443404344834303408340434443464341C
:1008C80054344C34443408343634413441340034DC
:1008D800003400347F34003400340034413441346F
:1008E80036340834043402340234013400347F349A
:1008F8004134413441347F342000AD01BB010A301A
:10090800A0000030A1004308A900AA012908A200FC
:100918002A08A3008D31B225843120002008AB00BD
:100928002B08B4000A30A0000030A1004308A90039
:10093800AA012908A2002A08A3008C31CF248431F7
:1009480020002008AB002B08B5000A30A0000030BA
:10095800A1004408A900AA012908A2002A08A300A6
:100968008D31B225843120002008AB002B08B60059
:100978000A30A0000030A1004408A900AA012908F3
:10098800A2002A08A3008C31CF248431200020083B
:10099800AB002B08B7008731EB2784318B1620007A
:1009A8001C15BB010A303B0203181B2E08303B0202
:1009B8000318712D34080319032D34083B0203185A
:1009C800032D3B08A9002908A000A101A2010F30AE
:1009D800AA002A08A30000308D3117258431200091
:1009E8003B08A9002908A000A101A2010F30AA0014
:1009F8002A08A30001308D311725843120002000FA
:100A080035080319292D35083B020318292D3B0801
:100A1800A9002908A000A101A2010F30AA002A08F4
:100A2800A30002308D311725843120003B08A9002E
:100A38002908A000A101A2010F30AA002A08A300DA
:100A480003308D3117258431200020003608031922
:100A58004F2D36083B0203184F2D3B08A9002908E3
:100A6800A000A101A2010F30AA002A08A3000430A7
:100A78008D311725843120003B08A9002908A000E2
:100A8800A101A2010F30AA002A08A30005308D3168
:100A9800172584312000200037080319092E37084C
:100AA8003B020318092E3B08A9002908A000A10150
:100AB800A2010F30AA002A08A30006308D3117259D
:100AC800843120003B08A9002908A000A101A20147
:100AD8000F30AA002A08A300042E200034080319A6
:100AE800972D34083B020318972D0730A9002908D1
:100AF800A0000F30AA002A08A100A201A30100301B
:100B08008D311725843107302000A9002908A0005D
:100B18000F30AA002A08A100A201A30101308D31DB
:100B2800172584312000200035080319BD2D35080C
:100B38003B020318BD2D0730A9002908A0000F307B
:100B4800AA002A08A100A201A30102308D311725AD
:100B5800843107302000A9002908A0000F30AA001E
:100B68002A08A100A201A30103308D311725843181
:100B78002000200036080319E32D36083B0203182D
:100B8800E32D0730A9002908A0000F30AA002A0881
:100B9800A100A201A30104308D311725843107304B
:100BA8002000A9002908A0000F30AA002A08A100E7
:100BB800A201A30105308D311725843120002000C2
:100BC80037080319092E37083B020318092E073086
:100BD800A9002908A0000F30AA002A08A100A20134
:100BE800A30106308D311725843107302000A90074
:100BF8002908A0000F30AA002A08A100A201A30119
:100C080007308D311725843120002000BD01BE0139
:100C180000303E02193003193D02031C0C2E01302E
:100C2800A9002908BB070A303B02031CDA2CAF01D4
:100C3800AE01B901BA01B001043030020318A92E7F
:100C48000830A0000030A1004608A900AA01290820
:100C5800A2002A08A3008D31B22584312000200883
:100C6800AB002B08BA0046080739A9002908B900C3
:100C78002E083A06031D442E2F08390603197A2E2A
:100C8800B00803195D2E20002F08A9002908A0002C
:100C98003108AA002A08A1003208AB002B08A200DC
:100CA8003308AC002C08A3002E088D311725843199
:100CB80020003908A9002908A0003130AA002A0814
:100CC800A1003230AB002B08A2003330AC002C0856
:100CD800A3003A088D316325843120003A08A90021
:100CE8002908AE003908A9002908AF000F30A9006B
:100CF8002908B800B81BA12E3908A9002908A000A6
:100D08003808AA002A08A1003808AB002B08A2005E
:100D1800A3013A088D31172584312000BD01BE0199
:100D280000303E023F3003193D02031C942EFF3071
:100D3800A9002908B807B81F802E0130A900290882
:100D4800B00704303002031C242EBB01BB0A093053
:100D58003B020318DB2EBA0108303A020318CA2EE8
:100D68003B03FF3A083EA9002908A000A101A201FF
:100D7800A3013A088D311725843101302000A900DC
:100D88002908BA0708303A02031CB42EBD01BE0177
:100D980000303E02193003193D02031CCC2E0130ED
:100DA800A9002908BB0709303B02031CAF2E1C1100
:100DB8009A018B1227008C130C138C120C128C11B5
:100DC8000C118C100D100800F030210099001A1F2A
:100DD800EB2E8C302000980021009A1FF02E200066
:100DE800960197011110210011140B302000AB005F
:100DF8006230AA00AA0BFE2EAB0BFE2E00002000CC
:100E080018140B170830AA002A08C3003B30AA00A0
:100E18002A08C4002D30AA002A08C6007C10C70181
:100E2800C50128008D018C01230090018C0122004E
:100E38008C018F019001FF3021008C00FF308F0062
:100E4800FF30900027000D108C100C118C110C1223
:100E58008C120C138C1326000D108C100C118C1195
:100E68000C128C120C138C13F901FB01FA012000EF
:100E7800C1018731EB2786312000C8010A302100E3
:100E880095007530200095000B118B168131442197
:100E9800863121008D1424008D1427009414951494
:100EA80026000D168D1527008D110230220097009F
:100EB800033021009E0030309D000D158D150D1654
:100EC8001C302700950096010B108B15033020006D
:100ED8009C007D309B00911021009114023020006D
:100EE800AA002A08C200003008002000A400A301BC
:100EF8002408143A0319842F2408343A031D8D2F2B
:100F080014308131A7218731E0392000A20022085E
:100F1800A30022000E112000911124082400910042
:100F28002000911D942F0000000000000000000028
:100F380000000000000000000000000000000000A9
:100F48000000000000000000000000000000000099
:100F58000000000000000000000000000000000089
:100F68000000000000000000000000000000000079
:100F78000000000000000000000000000000000069
:100F88000000000000000000000000000000000059
:100F98000000000000000000000000000000000049
:100FA8000000000000002000911124080A3A031DE7
:100FB800E02F21087F39E32F200021082304240093
:100FC80091002000911DE52F22000E150800200039
:100FD800A101C0302102031808002108303E860014
:100FE80087012330873D81010130A0002008A10737
:060FF800ED2F00348234ED
:101000008031582880315B2880315E28803161280A
:10101000803164288031672880316A2880316D28CA
:101020008C31C32C8C31902C8C31912C8C319C2C9C
:081030008C31AB2C8C31C32C78
:1018EC00F030210099001A1B0800792C640080014B
:1018FC0001310130FE020030FF3B7F087E040319EA
:10190C0000347D2C8631E8268C31003A031D8D2C59
:10191C008B17C32CA52C8B1122008D168C317624A1
:10192C008C318E3106268C310330A62C8B11220083
:10193C008D168C3176248C31843180248C3104309A
:10194C002000BC003C08C200C32C22008D128B125C
:10195C0027008C130C138C120C128C110C118C1084
:10196C000D10210090018F018C0169309900270026
:10197C0096010B108B1563000000200042088400B8
:10198C00063004020318C32C88310435103E820043
:10199C00C32C2000A601A31FDA2CA209A309A20ABA
:1019AC000319A30AA601A60AA11FE12CA009A109EB
:1019BC00A00A0319A10A210820040319082DA50166
:1019CC00A50AA11BF32C0130A035A10D890BEA2C23
:1019DC000130A4002408A507E72C21082302031DCD
:1019EC00F92C20082202031CFF2C2008A20221083B
:1019FC00A33B0130A136A00C890B002D0130A502B0
:101A0C00031DF32C26080319102DA209A309A20A01
:101A1C000319A30A2308A101A1072208A001A0070A
:101A2C0008002000A600A801A7012008270203181F
:101A3C00282D1830A4002408A8070130A40024087D
:101A4C00A7071B2DA701260827020318362D0330E4
:101A5C00A4002408A8070130A4002408A707292DF6
:101A6C002808303EA400A5012330A53D240886009B
:101A7C0025088700210881000130A4002408A8074C
:101A8C002808303EA400A5012330A53D240886007B
:101A9C0025088700220881000130A4002408A8072B
:101AAC002808303EA400A5012330A53D240886005B
:101ABC00250887002308810008002000A500A70145
:101ACC00A601200826020318742D1830A40024083F
:101ADC00A7070130A4002408A607672DA601250836
:101AEC0026020318822D0330A4002408A707013016
:101AFC00A4002408A607752D2708303E8600870110
:101B0C002330873D0108A4002108860087012408A2
:101B1C0081000130A4002408A7072708303E860066
:101B2C0087012330873D0108A40022088600870125
:101B3C00240881000130A4002408A7072708303EA0
:101B4C00860087012330873D0108A4002308860006
:101B5C0087012408810008002000A601A11FBD2DCB
:101B6C00A009A109A00A0319A10AA601A60AA31F8C
:101B7C00C82DA209A309A20A0319A30A0130A400C3
:101B8C002408A606A701A801210820040319F72D93
:101B9C00A501A50AA11BDC2D0130A035A10D890BD7
:101BAC00D32D0130A4002408A507D02D0130A73572
:101BBC00A80D890BDD2D21082302031DE72D20081C
:101BCC002202031CEE2D2008A2022108A33B27149D
:101BDC000130A136A00C890BEF2D0130A502031D9D
:101BEC00DC2D26080319FF2DA709A809A70A03193C
:101BFC00A80A2808A101A1072708A001A00708002E
:101C0C002000B801B901B301B401B001B00A430816
:101C1C00A9002908B1004408A9002908B2008B16B4
:101C2C00BD01BE019A011C1527303E02113003196B
:101C3C003D020318FA2F0D193D2E6830AA00E4302E
:101C4C00A900A90B272EAA0B272E000020000D1D82
:101C5C002C2E6830AA00E430A900A90B332EAA0B55
:101C6C00332E0000FF302000B307FF30582E8D19A3
:101C7C005A2E6830AA00E430A900A90B432EAA0BF7
:101C8C00432E000020008D1D482E6830AA00E43041
:101C9C00A900A90B4F2EAA0B4F2E000001302000DB
:101CAC00B3070030B43D762E0D1A782E6830AA009A
:101CBC00E430A900A90B602EAA0B602E00002000B6
:101CCC000D1E652E6830AA00E430A900A90B6C2EFD
:101CDC00AA0B6C2E000001302000B8070030B93D73
:101CEC00B001B00A30080319EA2FC62E3108A9003A
:101CFC00AA012908B6002A08B7003308B607340829
:101D0C00B73DB71F8D2E1730B6000030B70037081F
:101D1C00803AA90080302902031D962E1830360215
:101D2C00031C9B2E2000B601B70120003608A90029
:101D3C002908B100D32E3208A900AA012908B6003F
:101D4C002A08B7003308B6073408B73DB71FB22EC0
:101D5C003B30B6000030B7003708803AA90080301D
:101D6C002902031DBB2E3C303602031CC02E200062
:101D7C00B601B70120003608A9002908B200D32EFD
:101D8C003908003A0319CB2ED32E3808003A031920
:101D9C007C2E013A0319A12ED32E8731EB278E31DD
:101DAC000A302000A0000030A1003708A301A307CF
:101DBC003608A201A2078D31B2258E3120002108F0
:101DCC00AD01AD072008AC01AC070A30A000003013
:101DDC00A1003708A301A3073608A201A2078C3182
:101DEC00CF248E3120002108AF01AF072008AE01AF
:101DFC00AE07B5012D08803A803C031D072F2C0837
:101E0C0035020318692F0830200035020318362FCD
:101E1C003508A9002908A000A101A2010F30AA00D1
:101E2C002A08A3003808AB000130AB35FF3E031D78
:101E3C001B2F2B358D3117258E3120003508A9002D
:101E4C002908A000A101A2010F30AA002A08A300B2
:101E5C003808AB000130AB35FF3E031D312F5E2F30
:101E6C0007302000A9002908A0000F30AA002A087A
:101E7C00A100A201A3013808AB000130AB35FF3E35
:101E8C00031D442F2B358D3117258E310730200043
:101E9C00A9002908A0000F30AA002A08A100A2015D
:101EAC00A3013808AB000130AB35FF3E031D5A2FA0
:101EBC002B35013E8D3117258E3101302000A900C4
:101ECC002908B507002F2000B5012F08803A803C67
:101EDC00031D722F2E0835020318D62F0830200050
:101EEC0035020318A22F3508A9002908A000A1016A
:101EFC00A2010F30AA002A08A3003808AB00013059
:101F0C00AB35FF3E031D862F2B35023E8D31172539
:101F1C008E3120003508A9002908A000A101A201DA
:101F2C000F30AA002A08A3003808AB000130AB35EB
:101F3C00FF3E031D9D2FCB2F07302000A900290841
:101F4C00A0000F30AA002A08A100A201A3013808A2
:101F5C00AB000130AB35FF3E031DB02F2B35023EDD
:101F6C008D3117258E3107302000A9002908A000DB
:101F7C000F30AA002A08A100A201A3013808AB0067
:101F8C000130AB35FF3E031DC72F2B35033E8D3182
:101F9C0017258E3101302000A9002908B5076B2FB9
:101FAC0020003908003A0319DC2FE42F3808003AD6
:101FBC000319E42F013A0319E42FE42F2000B30195
:101FCC00B401BD01BE01B001003039020230031969
:101FDC003802031C1A2E3108A9002908C300320844
:101FEC00A9002908C400C6018B121C11BD01BE0139
:041FFC009A0108003E
:020000040001F9
:04000E00E4F9FFDC36
:00000001FF
